:020000040800F2
:10000000E07F0520A103000805660008A15E000846
:100010004D650008BB1D0008758C0008000000003D
:10002000000000000000000000000000E5020008E1
:10003000E91E0008000000003903000835850008AB
:10004000BB030008BB030008BB030008BB03000898
:10005000BB030008BB030008BB030008BB03000888
:10006000BB030008BB030008BB030008BB03000878
:10007000BB030008BB030008BB030008BB03000868
:10008000BB030008BB030008BB030008BB03000858
:10009000BB030008BB030008BB030008BB03000848
:1000A000BB030008BB030008BB030008BB03000838
:1000B000A5850008B1850008BB030008BB03000844
:1000C000BB030008BB030008BB030008BB03000818
:1000D000BB030008358C0008558C0008BB030008E2
:1000E000EB1E0008BB030008BB030008BB030008AD
:1000F000BB030008BB030008BB030008BB030008E8
:10010000BB030008E97B0008BB030008BB03000831
:10011000BB030008BB030008BB030008BB030008C7
:10012000BB030008BB030008BB030008A11E0008B6
:10013000BB030008BB030008BB030008BB030008A7
:10014000BB030008BB030008BB030008BB03000897
:10015000BB030008AD1E0008BB030008BB0300087A
:10016000BB030008BB030008BB030008BB03000877
:10017000BB030008BB030008BB030008000000002D
:10018000BB030008BB030008BB030008BB03000857
:10019000BB030008BB030008BB030008BB03000847
:1001A000BB030008BB030008BB030008BB03000837
:1001B000BB030008BB030008BB030008BB03000827
:1001C000BB030008BB03000800000000BB030008DD
:1001D000BB030008BB030008BB030008BB03000807
:1001E000BB030008BB030008BB030008BB030008F7
:1001F000BB030008BB03000800F002F800F062F83F
:100200000AA090E8000C82448344AAF10107DA4571
:1002100001D100F057F8AFF2090EBAE80F0013F061
:10022000010F18BFFB1A43F001031847BC930300EA
:10023000DC9303000A4410F8014B14F00F0508BFCB
:1002400010F8015B240908BF10F8014B6D1E05D0A2
:1002500010F8013B6D1E01F8013BF9D1641E03D07B
:10026000641E01F8015BFBD19142E4D370470000AA
:100270000023002400250026103A28BF78C1FBD8AF
:10028000520728BF30C148BF0B607047642900F097
:100290005581732900F08E83002070471FB50EF042
:1002A00077FA00F0D5FC0400002000210EF004FADB
:1002B000401C6060002000210EF0E8F9E0601FBDE6
:1002C00010B510BD00F09EFC1146FFF7E7FF0BF0E4
:1002D00051FD00F021FF03B4FFF7F2FF03BC08F06B
:1002E000B6FD00002B4B19680868B0E8F04F80F3AA
:1002F0000988BFF36F8F4FF0000080F311887047BB
:100300000000000006480068006880F3088862B6B4
:1003100061B6BFF34F8FBFF36F8F00DF00BF00BF29
:1003200008ED00E0DFF80C00016841F470010160A5
:10033000704700BF88ED00E0EFF30980BFF36F8FD7
:10034000144B1A681EF0100F08BF20ED108A20E928
:10035000F04F106008B44FF0100072B680F31188AF
:10036000BFF34F8FBFF36F8F62B60DF025FA4FF0DA
:10037000000080F3118808BC19680868B0E8F04FE5
:100380001EF0100F08BFB0EC108A80F30988BFF38D
:100390006F8F7047E4000220EFF305807047000084
:1003A0000948804709480047FEE7FEE7FEE7FEE709
:1003B000FEE7FEE7FEE7FEE7FEE7FEE70448054945
:1003C000054A064B704700004D850008F9010008FA
:1003D000E0790520E07F0520E07B0520E07B05201B
:1003E000704753EA020C00F069802DE9F04B4FF0A2
:1003F0000006002B1FBFB3FA83F503FA05F424FAB5
:1004000005F65E4012BF1643B2FA82F502FA05F411
:10041000C5F120051EBF22FA05FC44EA0C04203574
:1004200056EA044C4FEA144418BF641C4FF000080D
:100430004FF00009904271EB030C39D3002919BF2A
:10044000B1FA81F701FA07F6B0FA80F700FA07F679
:10045000C7F120071EBF20FA07FC46EA0C0620372A
:10046000B6FBF4FCA7EB0507103F07F01F0BCBF121
:1004700020060CFA0BFB2CFA06F644BFB346002606
:10048000202FA4BF5E464FF0000B5BEA060C08BFAE
:100490004FF0010B19EB0B09ABFB027C48EB060894
:1004A000C01B06FB02CC0BFB03CC71EB0C01C1E7BC
:1004B0000B46024641464846BDE8F08B13B54FF067
:1004C00000004FF00001AFF30080BDE81C40704712
:1004D0000FB4044910B503AA029800F06FFA10BCDB
:1004E0005DF814FBCC00022070B50C460546012ACD
:1004F00005D02878800600D5EA69002302E00123B0
:1005000005E05B1C934202D2E05C0028F9D1A869A7
:10051000E618C01AA861286A184428622846AFF372
:10052000008004E0D5E9012114F8010B9047B442A2
:10053000F8D32846AFF3008070BD00002DE9F041EC
:100540000646002410687529314616A510D0AFF371
:100550000080002802DA404213A507E031688A07CC
:1005600001D512A502E0490704D511A5012401E037
:10057000AFF3008000210A2206F1240709E0B0FB56
:10058000F2FCB0FBF2F302FB1C003030785418464A
:10059000491C0028F3D123462A463046BDE8F041E5
:1005A00000F085B9000000002D0000002B000000C5
:1005B000200000002DE9F0410F460546002028628A
:1005C0002846E968884770B3252805D0D5E9012178
:1005D0009047286A401CF2E7E968284600268847C9
:1005E0006C2804460AD0682C08D04C2C35D06A2CD4
:1005F00031D0742C31D07A2C2FD016E0E968064621
:1006000028468847B042044608D16C2E23D04FF4C8
:1006100080662846E9688847044606E06C2E03D0C9
:100620004FF4807601E01EE04026E4B1A4F14100E1
:10063000192802D8203446F400663A462146284656
:100640002E60FFF723FE60B1012808D0FF1D27F0C0
:1006500007070837B4E78026DBE70026D9E73F1D08
:10066000AEE72046B2E7286ABDE8F08170B50646DD
:1006700000F00EF90468054630460A22002100F019
:1006800001FA2C6070BD002800DA40427047032A4E
:1006900040F2308010F0030C00F0158011F8013B9F
:1006A000BCF1020F624498BF11F801CB00F8013B86
:1006B00038BF11F8013BA2F1040298BF00F801CB4A
:1006C00038BF00F8013B11F0030300F02580083A21
:1006D000C0F0088051F8043B083A51F804CBA0E878
:1006E0000810F5E7121D5CBF51F8043B40F8043BCD
:1006F000AFF30080D20724BF11F8013B11F801CB02
:1007000048BF11F8012B24BF00F8013B00F801CBD2
:1007100048BF00F8012B704710B5203AC0F00B809D
:10072000B1E81850203AA0E81850B1E81850A0E8F5
:100730001850BFF4F5AF5FEA027C24BFB1E818504F
:10074000A0E8185044BF18C918C0BDE810405FEABF
:10075000827C24BF51F8043B40F8043B08BF70473B
:10076000D20728BF31F8023B48BF11F8012B28BF40
:1007700020F8023B48BF00F8012B704702F0FF034E
:1007800043EA032242EA024200F002B84FF00002BC
:100790000429C0F0128010F0030C00F01B80CCF193
:1007A000040CBCF1020F18BF00F8012BA8BF20F801
:1007B000022BA1EB0C0100F00DB85FEAC17C24BF55
:1007C00000F8012B00F8012B48BF00F8012B7047FF
:1007D0004FF0000200B5134694469646203922BFDA
:1007E000A0E80C50A0E80C50B1F12001BFF4F7AF25
:1007F000090728BFA0E80C5048BF0CC05DF804EB07
:10080000890028BF40F8042B08BF704748BF20F874
:10081000022B11F0804F18BF00F8012B7047000029
:100820004FF0013C50F8042B51F8043B9A4215D18B
:10083000A2EB0C03934313EACC130BD150F8042B17
:1008400051F8043B9A4209D1A2EB0C03934313EAFB
:10085000CC13E7D04FF00000704700BFD01A01BAA8
:10086000B1FA81F101F0180122FA01F0CB40C1F197
:100870002001DBB2C0B2C01A2CFA01F3D11A9143A5
:1008800011EAC311E6D1704770477047704770474F
:10089000004870478079052010B5FFF7F9FF006820
:1008A00010BD10B50446FFF7F3FF046010BD2DE93D
:1008B000F0470D4699469246044600F12408016827
:1008C000880604D5E06921F01001216000E00120D4
:1008D000A84201DD471B00E00027A1697A1902EB5D
:1008E0000900081AA0612078C00602D42046AFF3A0
:1008F0000080002608E0D4E901211AF8060090479C
:10090000206A401C761C20624E45F4DB2078C0062D
:100910000AD52046AFF3008006E0D4E9012130205B
:100920009047206A401C2062381EA7F10107F4DCC2
:1009300007E0D4E9012118F805009047206A401C1F
:100940002062281EA5F10105F3DC2046AFF30080EC
:100950002078000602D50220BDE8F0870120FBE7E1
:1009600001694A1C02610878704700B58FB0CDE973
:1009700001310021059105497944CDE90310114663
:100980006846FFF717FE0FB000BD0000E5FFFFFF50
:1009900010B5436913B1AFF3008001E0FFF7A4FD88
:1009A000012010BD127800F124010A7000224A7063
:1009B0000122EDE711684FF0FF32E9E7074B70B510
:1009C0000D467B44FFF7D1FF0446284600F016F998
:1009D00010B14FF0FF3070BD204670BDBFAF0000BA
:1009E0000FB4002300B589B00CA900910B99CB601E
:1009F000214B7B440693214B7B44079304236FF0E8
:100A00000042CDE901321E4A7A446B460892024602
:100A100000200DF05FFF09B05DF814FB70B50646CD
:100A20004FF0FF3015460C46324686B00091CDE9B6
:100A3000010169460020049004A8FFF7D1FF024697
:100A40000498211825B108B1084600E02046286026
:100A5000049800280DD0002A02DD0098884208D0B2
:100A60003246081B69460094CDE9010404A8FFF74B
:100A7000B7FF06B070BD0000290100004101000071
:100A8000010100002DE9F04791460F4680460446DB
:100A9000002614F8015B2DB100F030F80068405DCD
:100AA000C007F6D12B2D02D02D2D18D0641E4A463A
:100AB0003946204600F053F827B13968A14201D1E8
:100AC000C7F800804FF0020471050BD540420028A2
:100AD00003DDFFF7DDFE0460A007BDE8F08746F404
:100AE0008066E4E70028F8DAFFF7D2FE04606FF0D2
:100AF0000040F2E7004870478079052010B500F00B
:100B0000A7F8001D10BD00BFB1DB000010B5044602
:100B1000FFF7F4FF0068005D00F0010010BD4268BF
:100B200042B1016811F8013B23B1521EC0E9001225
:100B3000184670470121C160881E704742685AB14B
:100B4000C368016843B983688B4205D0491E521CB3
:100B5000C0E90012002070474FF0FF3070472DE9C8
:100B6000F05F824615468B4600270AF10104B9461C
:100B70000078302801D09DB113E014F8010B012753
:100B8000782803D0582801D045B10AE00DB1102DC6
:100B900007D1002714F8010B102502E0082500E01A
:100BA0000A250026B0460EE005FB080005FB06F10D
:100BB00001271FFA80F801EB1046B6F5803F00D3FD
:100BC000B94614F8010B294600F046F80028EBDA84
:100BD000BBF1000F05D00FB1641E00E05446CBF806
:100BE0000040B9F1000F06D0FFF752FE022101606C
:100BF000C81EBDE8F09F48EA0640FAE7007B00F017
:100C0000800070477546FFF775FFAE4605006946E0
:100C1000534620F00700854618B020B5FFF7CEFBFD
:100C2000BDE820404FF000064FF000074FF00008ED
:100C30004FF0000B21F00701AC46ACE8C009ACE86E
:100C4000C009ACE8C009ACE8C0098D467047000097
:100C500000487047A07905203A2800D2303820F0AB
:100C60002002412A01D3A2F13700884201D34FF07C
:100C7000FF3070472DE9FF4F064689B00878FF28FE
:100C800006D0491C2D2805D000244FF0000908E0AB
:100C900000200CE00124F8E709EB8903491C00EB74
:100CA00043090878FF28F7D114B1C9F10000814643
:100CB000107800252C46AA4629462D2801D02B283D
:100CC00004D1521C2D2813D0002082468B46107868
:100CD000FF280FD04FF0000C0A21521CA5FB017811
:100CE00004FB018105FB0C11C5194BEB0104EEE778
:100CF0000120EAE7002108464FF00000BAF1000F9A
:100D000002D000EB80004008C0F38158B8F1010F19
:100D100001DD4FF0FF380C9809EB000755EA04009D
:100D200009D04FF0020917F5FA7F0BDA4FEACA70C3
:100D3000C6E900B012E04FEACA70C6E900B00DB0D3
:100D4000BDE8F08FB7F5FA7F0DDDF0487844D0E9C3
:100D50000010C6E9001040EACA707060FFF798FD05
:100D6000C0F80090EBE7391E02DAC8F1000200E09B
:100D7000424600DA794206A800F0D8F906AB93E8BB
:100D8000070003AB83E8070044F23E005BEA04017E
:100D90000090584604D144F21E012C465D46009155
:100DA000210C0904014306D10099240444EA1544A6
:100DB0002D041039009104F07F41014306D10099C0
:100DC000240244EA15642D020839009104F07041B0
:100DD000014306D10099240144EA15742D01091F2D
:100DE000009104F04041014306D10099A40044EA77
:100DF0009574AD00891E009104F00041084304D1B0
:100E000000986D196441401E009042466846002FCC
:100E1000CDE9014503A902DD00F099FE01E000F0F3
:100E20006EFEBAF1000F04460D4601D084F0004476
:100E300040F2FF7724F00040284303D0C4F30A5067
:100E4000B84212D1FFF724FDC0F80090C4F30A5055
:100E5000B8420AD1AE487844D0E90010C6E9001083
:100E600004F000410843706069E7C6E9005466E792
:100E70002DE9FF4F1F464FF0000A4FF0FF3845465F
:100E800091B0D7E90146CDF83CA0FFF7E1FEC0687C
:100E90000168405C1090B96912986D1C8847396AE6
:100EA000814688470028F6D1B9F1FF3F0AD0002ECD
:100EB00024F4D06411DDB9F12B0F08D0B9F12D0F56
:100EC0000BD102E0404615B03AE744F48064B969BA
:100ED00012986D1C8847761E8146600504A901D5CD
:100EE0002D2000E02B20002E01F1010B0DF1300828
:100EF0008DF810003FDDB9F1690F08D0B9F1490F45
:100F000005D0B9F16E0F02D0B9F14E0F1CD13B469E
:100F100001A8009580E85002DDE912126FF002008E
:100F20000DF0DCFCC11CCED10EE0B96912986D1C2D
:100F3000884781461398761E44F4007405600F9824
:100F4000401C002E0F9016DDB9F1300FEDD0B9F135
:100F5000780F02D0B9F1580F0DD10F9801280AD19E
:100F60003B46CDE90054DDE91212001F02960DF058
:100F7000B3FCC11CA7D1109989453ED144F080042F
:100F800006E01399681CAAF1010A44F40074086091
:100F9000B9696D1C1298761E884730288146F0D0BA
:100FA0002BE01099894505D1200603D4761E44F024
:100FB000800418E0484607F043FF08B3761E0DF1A1
:100FC00023018B4544F4007408D2A9F130000BF8DA
:100FD000010B200607D5AAF1010003E0200602D488
:100FE0000AF101008246A00502D51399681C086029
:100FF000B96912986D1C88478146002ED1DC53E0F8
:10100000002E51DDB9F1650F02D0B9F1450F4BD17A
:10101000A00549D5B9696D1C1298761E24F4407458
:101020008847002E81460CDD2B2804D0B9F12D0F06
:1010300007D144F48074B96912986D1C8847761EF4
:101040008146E00501D52D2100E02B2108F8011B88
:10105000CDF8008021E0761E0DF13901884544F479
:1010600000740CD2A9F1300010F0FF0088F80000E5
:1010700002D10099884509D908F1010806E0E00588
:1010800001D5244801E042F20F708246B9691298F6
:101090006D1C8847814613980560002E04DD484684
:1010A00007F0CEFE0028D6D1F96912988847FF20B4
:1010B00053468BF8000088F8000000200A900B903F
:1010C00004AA0CA90AA8FFF7D5FDA00502D46FF069
:1010D0000100F8E614F0240F0AD0E00714D13868B4
:1010E000DDE90A12031D3B600068C0E900120BE055
:1010F0000AA9684607F0F4FDE00705D13868009AB0
:10110000011D3960006802602846DCE6B8880300EB
:10111000AE870300F1D8FFFF10B50446AFF300809F
:101120002046BDE81040FFF7D6B800002DE9F04793
:10113000814616468AB0334878440DC88DE80D00C4
:1011400030487844801C03AC0DC884E80D0041F69B
:101150009B300844372190FBF1F290FBF1F5A5F1AB
:10116000800501FB12041B3C02D56442012000E013
:101170000020DFF890A080460027FA44AAF1BE0ABA
:101180000DE0E00709D03246684607EB47010AEB5D
:10119000810100F0C8FC8DE8070064107F1C002C62
:1011A000EFD1184F7F44AC3F18E0E80714D007EBAD
:1011B00004100DF1180A90E80E008AE80E00C068CD
:1011C000F04201D198190890324606A903A800F010
:1011D000AAFC03AB83E807006D10641C002DE4D16A
:1011E00032466946B8F1000F03A802D000F073FC44
:1011F00001E000F098FCC9E90001C9F808200AB034
:10120000BDE8F087948403002DE9FF4F1F464FF09F
:101210003C0987B04FF00042DDE9141001F10108EC
:10122000DDF858A002EA4050039000200590834664
:10123000054604460490B969461E08988847AAF1F5
:10124000010A0290BAF1000F3BDD02982E2815D05A
:101250001021FFF701FD00282EDB4FF0010B05994F
:10126000014317D0B9F1000F0BDB4A46C11700F05C
:10127000F5F905430C43A9F1040905E001200490A8
:101280000BE008B145F0010501200590049820B954
:10129000361D02E0049800B1361FB969089808F1BC
:1012A00001088847BBF1000FAAF1010A0290C9D0DA
:1012B0000999C1F80080C5E70298702808D0502825
:1012C00006D0F96908988847BBF1000F14D04FE0A9
:1012D000002002900120BBF1000F049009D0B969F1
:1012E000089808F101088847AAF10109B9F1000F2F
:1012F00007DCF969089888476FF001000BB0BDE87A
:10130000F08F2B2804D02D280CD14FF0FF30049003
:10131000B969089808F101088847A9F10109B9F1EC
:10132000000FE6DD411CE4D00A21FFF795FC002800
:10133000DFDB029908F1010801EB810100EB4100BC
:101340000290B969089888470A21FFF785FC099A35
:10135000A9F10109B9F1000FC2F8008001DD0028F0
:10136000E7DAF969089888470499029800FB016652
:1013700055EA040004D004F04041090002D006E020
:10138000039898E0A40044EA9574AD00B61E04F0FA
:101390000041080002D16D196441761E159810F0C5
:1013A000240F03D04FF00B095C4803E04FF02809ED
:1013B0006FF07D008246564507DAAAEB06018944A4
:1013C000B9F1410F01DD4FF0410901200021A9F1E0
:1013D000010200F043F9024628400B462140084331
:1013E00001D0012100E00021501E029143F1FF31A4
:1013F00028402140084301D0012000E0002002994C
:10140000834651EA0B014FD0002108464FF00000FF
:10141000039900F4400039B100EB80004FF4400123
:1014200000EBD07001EA60008015012802DD4FF06A
:10143000FF3000E013D0401C36D0029860B3BBF1FF
:10144000000F0CD14A460120002100F007F9284086
:101450002140084301D0012000E00020E0B101203C
:101460004A46002100F0FAF8034640190A46614155
:101470002D1A8C4111D3B9F1400F09DD159810F0E8
:10148000240F02D0AAF1340603E0AAF1170600E007
:10149000761C00254FF0004406E05B1E42F1FF324F
:1014A00020EA030521EA0204CAF10100B04206DA8B
:1014B0001B49039808430190002000900EE0039A16
:1014C000C4F3D321E80A0A43164940EA44500A43C8
:1014D0003146CDE90002684607F056FC159810F039
:1014E000240F0BD01598C00715D13868DDE900121C
:1014F000031D3B600068C0E900120CE002A86946C9
:1015000007F0EEFB1598C00705D13868029A011D57
:101510003960006802604046F0E6000002FCFFFF10
:101520000000F07F0000F03F2DE9FF4F92461D467E
:1015300085B04FF00041DDE9124BDDE914727F1EEA
:1015400001EA4B50414940F0FF4940EA01080021BF
:1015500022F020004928049102D04E2828D04CE0E7
:101560003BA0012607C88DE80700A9690698641CFE
:1015700088477F1E014606D41DF8060018B121F0E9
:10158000200181420BD0E96906988847032E34D0A8
:10159000082E32D06FF0010009B0BDE8F08F761C44
:1015A000032E01D0082EE0D1601CCAF80000DCE751
:1015B000A9690698641C88477F1E2AD420F0200061
:1015C000412826D1A9690698641C88477F1E20D42B
:1015D00020F020004E281CD1A9690698641C884779
:1015E0007F1E48F4002849F48009CAF8004001D45D
:1015F000282806D0E969069888475FEACB7012D0A0
:1016000022E0A9690698641C88477F1E01D400283F
:1016100003DAE96906988847BCE72928F1D1641CF8
:10162000CAF80040E9E71BF0240F07D028680499A6
:10163000031D2B600068C0E9001805E02868021D42
:101640002A600068C0F800902046A5E70000F07FFF
:10165000494E46494E49545900000000B2F120035A
:101660000AD5C2F1200301FA02F120FA03F300FACD
:1016700002F041EA0301704700FA03F14FF0000065
:10168000704720F07F4C80EA030023F07F47ACEBEB
:10169000070303F57C5300F0004003F1FF032DE93D
:1016A00080494FEA154B09B44FEA144325EA0B4E23
:1016B00024EA03480FF2042606EB132749083E7874
:1016C0005FEA320203FB0667C7F5000707FB06F671
:1016D0004FEA54374FEAD64606F1020607FB066C7E
:1016E000CCF1005C4FEA1C472CEA074C07FB06F4E0
:1016F0000CFB06F504EB15464FEA961634BF0020A6
:101700004FF000404FEAD13706FB07FC4FEA1C4C74
:101710000CFB0BF7D21B03FB0CF761EB07010CFB77
:101720000EF7B0EB074072EB17420CFB08F734BF23
:10173000A2EB0742B2EB074261EB17414FEA0C44C0
:101740004FEA910706FB07FC4FEA1C4C0CFB0BF71A
:10175000B0EBC74072EB573203FB0CF734BFA2EB80
:10176000C742B2EBC74261EB57310CFB0EF7B0EB4F
:10177000C70072EB57720CFB08F734BFA2EBC7022D
:10178000B2EBC70261EB5771039F4FEA816141EAF7
:10179000921104EBCC044FEAD1374FEA826206FB88
:1017A00007FC42EA90124FEA80604FEA1C4C0CFBA7
:1017B0000BF7D21B03FB0CF761EB07010CFB0EF7D9
:1017C000B0EB074072EB17420CFB08F734BFA2EBFB
:1017D0000742B2EB074261EB17414FEA8C554FEAE3
:1017E000910704EB9C2406FB07FC4FEA1C4C0CFB06
:1017F0000BF7B0EBC74072EB573203FB0CF734BF6B
:10180000A2EBC742B2EBC74261EB57310CFB0EF7BC
:10181000B0EBC70072EB57720CFB08F734BFA2EBBA
:10182000C702B2EBC70261EB577115EB4C254FEACB
:10183000816141EA92114FEA82624FEAD13742EA6E
:10184000901206FB07FC44F100044FEA80604FEA67
:101850001C4C0CFB0BF7D21B03FB0CF761EB0701D5
:101860000CFB0EF7B0EB074072EB17420CFB08F7CE
:1018700034BFA2EB0742B2EB074261EB174115EB15
:101880001C154FEA813141EA92414FEA823242EA25
:1018900090424FEA80304FEA0C7644F1000448EA67
:1018A00003434EEA0B484FF0000EB2EB080C71EB0D
:1018B000030724BF624639464EEB0E0E4FF0000B75
:1018C0000018524149414BEB0B0BB2EB080C71EB8A
:1018D00003077BF1000B24BF624639464EEB0E0E28
:1018E0004FF0000B0018524149414BEB0B0BB2EB90
:1018F000080C71EB03077BF1000B24BF62463946ED
:101900004EEB0E0E51EA020718BF46F0010616EB29
:101910000E7655F1000254F1000103D5BDE88901AE
:10192000BDE80088BDE88901BDE80048B61952410C
:1019300041EB0101A3F10103704780807F7E7D7C34
:101940007B7A7978777676757473727171706F6E51
:101950006E6D6C6C6B6A6A696868676666656464FC
:10196000636362616160605F5F5E5E5D5D5C5C5B86
:101970005B5A5A59595858575756565555555454F5
:10198000535352525251515050504F4F4F4E4E4D53
:101990004D4D4C4C4C4B4B4B4A4A4A49494948489F
:1019A00048474747474646464545454444444443DF
:1019B00043434342424242414141000046EA064617
:1019C000A3F570534FEA164646EA42564FEAD22232
:1019D00042EA415210B54FEAD121A3F1010300F0D0
:1019E00017F820F0004000F1010C00F0004701EB77
:1019F00000501146BCF5006F40EA070000D210BD50
:101A000002484FF0000140EA070010BD0000F07FDF
:101A1000002B26D4770021D01CB54FEA370703B43A
:101A20004FF010004FF010014FF000000FBCBDE868
:101A300010400BF1010BBBF1010F08BF5FEA170764
:101A400022BF12F1010211F101014FF0004143F1F7
:101A5000000300F0004043EA00007047F9D3570844
:101A6000DAE746EA064613F1400F4FEA16461FDD55
:101A700013F1200FDFBF16430A46002120335B42DB
:101A8000C8D0C3F1200746EA064602FA07F74FEA34
:101A9000164646EA0706C3F1200722FA03F201FAC6
:101AA00007F721FA03F14FF0000342EA0702B1E71A
:101AB00046EA020646EA06464FEA164646EA0106A6
:101AC000BCBF46EA0646360C4FF000034FF000025A
:101AD0004FF000019EE72DE9C048934630B491E8ED
:101AE000380007C831EA400C48BF34EA430C03D53C
:101AF000FFF7C7FDFFF78CFFF0BCBDE800882DE9BC
:101B0000C048934630B491E8380007C831EA400C29
:101B100048BF34EA430C03D5FFF7B3FDFFF74EFF90
:101B2000F0BCBDE800882DE9C048934630B491E888
:101B3000380007C810F0804F08BF13F0804F03D162
:101B400000F019F8FFF764FFF0BCBDE800882DE94C
:101B5000C048934630B491E8380007C810F0804F71
:101B600008BF13F0804F03D100F005F8FFF726FF00
:101B7000F0BCBDE8008820F07F4780EA030023F036
:101B80007F4C07EB0C03A3F57C5300F00040A3F15E
:101B9000FE0392F0000F00F0B38095F0000F00F00C
:101BA00077802DE901494FEA11404FEA144621EAB6
:101BB000004800FB06FC24EA064708FB06F607FB84
:101BC00008F800FB07F718EB06484CEB164C4FEAF9
:101BD000124B18EB07484FEA15464CEB174022EA28
:101BE0000B4E0BFB06FC25EA06470EFB06F607FB31
:101BF0000EFE0BFB07F71EEB064E4CEB164C4FF0A0
:101C000000061EEB074E4CEB174B18EB0B0840F190
:101C1000000018EB0E0B58EB000840F100008F1A83
:101C20004FF000013CBFC943661B14BFB5EB040C69
:101C300000213CBFC943F61B4FEA17444EEA8E0E03
:101C400027EA04454FEA1C4704FB07622CEA074CCD
:101C500005FB07F70CFB05F604FB0CFC16EB07462F
:101C600042EB174216EB0C4642EB1C421BEB0606FE
:101C700058EB0202414146EA9E0601D5BDE80189C2
:101C8000B619524141EB0101A3F10103BDE80189FD
:101C90004FEA14454FEA114724EA054621EA074C6A
:101CA00005FB07F406FB07F70CFB06F105FB0CFC34
:101CB00011EB074144EB17444FEA124711EB0C417B
:101CC00044EB1C4422EA074C05FB07F206FB07F72E
:101CD0000CFB06F605FB0CFC16EB074642EB174225
:101CE00016EB0C4642EB1C456A1854F1000148BF44
:101CF0007047B619524141EB0101A3F1010370474E
:101D000095F0000F37D04FEA11424FEA144721EA0D
:101D1000024624EA074C02FB07F106FB07F70CFB1F
:101D200006F402FB0CFC14EB074441EB17414FEAAD
:101D3000154714EB0C4441EB1C4125EA074C02FB10
:101D400007F506FB07F70CFB06F602FB0CFC16EB8F
:101D5000074645EB174516EB0C4645EB1C4212199E
:101D600051F1000148BF7047B619524141EB0101E2
:101D7000A3F1010370474FEA14454FEA114724EAE3
:101D8000054621EA074C05FB07F106FB07F70CFBAC
:101D900006F24FF0000605FB0CFC12EB074241EB8C
:101DA000174112EB0C4251EB1C4148BF704792188F
:101DB00041EB0101A3F101037047FEE770B4BFF3EB
:101DC0004F8FBFF36F8F1A4900200860194D2968A3
:101DD00041F400312960BFF34F8FBFF36F8F164975
:101DE0000860BFF34F8F081F006843F6FF76134A61
:101DF000C0F34E3CC0F3C90406EA4C11204641EA48
:101E000080731360401EFAD2BCF1010CF4D2BFF310
:101E10004F8F286840F480302860BFF34F8FBFF3A6
:101E20006F8F0748016841F00401016070BC704782
:101E300050EF00E014ED00E084ED00E060EF00E022
:101E40009CEF00E0020B4DF8044D0A705242030A69
:101E50004FEA101C03EB02134B700CEB0224C3F18E
:101E6000000C00EB023004EB0C138B705A420B4B4E
:101E700000EB0C2000EB0210C8700020D870C0B23C
:101E80000A5C092A94BF303237320A54401CC0B26F
:101E9000D8700428F3D35DF8044B7047D4000220B7
:101EA0000148806D01F044B8700B02200148C06DFC
:101EB00001F03EB8700B02200021034601205A5C5D
:101EC0007AB1A2F13000092803D92E2A18BF2D2A91
:101ED00005D1491C0120C9B21929F0D3704700204F
:101EE00070470029FBD0704770474FF4005001F055
:101EF0002BBA000010484DF804ED87B0016841F09E
:101F0000040101600068694600F0040005904FF488
:101F1000005000900948019001200290084801F00B
:101F20001FFA03220621282001F07EFB282001F061
:101F30006EFB07B05DF804FB303802400000211052
:101F40000008024005480021017041708170C17095
:101F5000017141718171C171704700000C00022054
:101F60004FF4165010B50BF099F8084901220848B3
:101F700003F074FE002006F00FF9322007F01EF97E
:101F8000BDE810404FF4E1300BF088B8C2000220E9
:101F90001C09022000281CBF0029002BDCBF0020E8
:101FA000704770B44FF0000C644666460AE02C2D72
:101FB00008BF641C0CF1010CBCF1B40F1CDA10F862
:101FC0000C50CDB1944205D010F80C50002DEED13C
:101FD000002215E010F80C202C2A18BF2A2AF7D16D
:101FE0000AE08C54521C9A420CF1010C01DB5A1E7F
:101FF0000DE0BCF1B40F03DB0E70002070BC704725
:1020000010F80C402C2C1CBF2A2C002CE9D18E542B
:1020100070BC0120704700000FB424202DE9F04F60
:10202000DFF87CB406242DED028B97B08DF82000EC
:1020300047208DF821004E208DF8220052208DF887
:1020400023004D208DF8240043208DF825009DF8B5
:102050008E709DF8880004F019FFDFF8488498F826
:1020600000008DF8140098F801008DF815009DF817
:10207000890004F00BFF98F800008DF8160098F81E
:1020800001008DF817009DF88A0004F0FFFE98F813
:1020900000008DF8180098F801008DF819002E2026
:1020A0008DF81A00BDF88C00642806D34CF6CD419B
:1020B00000FB01F0C00CADF88C00C0B204F0E6FEED
:1020C00098F800008DF81B0098F801008DF81C00AE
:1020D000DBF81800DFF8D8A39FEDF38B34EA00019A
:1020E00004D110F0100F18BF412703D1D9B910F057
:1020F000100F18D09AED040B20EE080B04F0E4FE4C
:1021000000200DF1380918F8001009F80010401CE3
:10211000C0B20A28F7D3DBF8180034EA00019DF8B2
:1021200098400CD102E09DED240BE7E710F0100F72
:1021300005D04E2C14BF532C254631BB05E04E2C48
:1021400014BF532C2546F8D1F3E710F0100F1CBF35
:102150009AED060B20EE080B17D004F0C9FF002003
:102160000DF1480B18F800100BF80010401CC0B21D
:102170000B28F7D3DFF828C306239DF8A800DCF866
:10218000181033EA01020BD102E09DED280BE4E7C1
:1021900011F0100F04D0572818BF452804D004E0D0
:1021A000572818BF452800D106464E2C14BF532C83
:1021B00025469DED2C0BB7EEC00B9FEDBE8A04208B
:1021C00005F0BAF898F8000006218DF8300098F86C
:1021D00001008DF8310098F802008DF8320098F86F
:1021E00003008DF8330098F804008DF83400AC48F3
:1021F000806981431ED110F0100F1BD09AED100B97
:102200000420B7EEC00B05F097F82D24D0B198F854
:1022100000008DF8000098F801008DF8010098F892
:1022200002008DF8020098F803008DF8030098F87A
:10223000040017E09DED2E0B0420B7EEC00B05F057
:102240007BF8E2E78DF8004098F800008DF8010077
:1022500098F801008DF8020098F802008DF803004C
:1022600098F803008DF804009DF8C20004F00EFEFB
:1022700098F800008DF8280098F801008DF82900E2
:102280009DF8C30004F002FE98F800008DF82A00C3
:1022900098F801008DF82B00BDF8C400A0F5FA6095
:1022A000C0B204F0F3FD98F800009DF8D0A08DF8BE
:1022B0002C0098F80100BAF1000F8DF82D0006D01F
:1022C0009DED320B0320B7EEC00B05F035F804206E
:1022D000B0EE480A05F030F8012817D08DF80C4010
:1022E00098F800008DF80D0098F801008DF80E00A8
:1022F00098F802008DF80F0098F8030006218DF879
:1023000010006748806981437ED112E098F8000090
:102310008DF80C0098F801008DF80D0098F8020077
:102320008DF80E0098F803008DF80F0098F804005F
:10233000E4E710F0100F18BF412165D05E4C2A224F
:10234000002008AB13F800C004F800C0401CC0B265
:102350000628F7D32C23A37100200DF1140C04EBF5
:10236000000E1CF800C0401CC0B28EF807C009283F
:10237000F3D3237400206774A374271819F800C0DE
:10238000401CC0B20A2887F813C0F6D36377002038
:10239000A577E37725181BF800C0401CC0B20B28B6
:1023A00085F820C0F6D384F82B30002084F82C6008
:1023B0000DF1300C84F82D3026181CF80050401C0C
:1023C000C0B286F82E500528F6D30020EC4684F8DB
:1023D000323026181CF80050401CC0B286F833502A
:1023E0000528F6D3002084F838300DF1280C261883
:1023F0001CF80050401CC0B286F839500628F6D3AD
:10240000002084F83F3000E046E00DF10C0C261867
:102410001CF80050401CC0B286F840500528F6D386
:10242000BAF1000F84F8453014BF9DF8D100302078
:1024300084F84600002084F8473084F84810492189
:1024400084F8492004F0E0F804F000F998F800005E
:1024500084F84A0098F8010084F84B000D2084F8B5
:102460004C000A2084F84D004E20144C144984F886
:1024700021000120487013A0FEF72AF894F82100EB
:10248000401EC1B20C480AF049FA17B0BDEC028BED
:10249000BDE8F00F5DF814FB9DF8D2104EE7000088
:1024A00038CA0220EE060220F8C1631ADCA54C40AF
:1024B00070060220000000001B07022050000220CE
:1024C00060060220524D435F54585F4441544120FE
:1024D0000A000000000000000FB424204E212DE966
:1024E000F04F4FF000092DED028B99B08DF81C00D4
:1024F00047208DF81D008DF81E108DF81F008DF8F7
:10250000200041208DF821009DF8900004F0BEFCD1
:10251000DFF84CB49BF800008DF810009BF8010028
:102520008DF811009DF8910004F0B0FC9BF80000BC
:102530008DF812009BF801008DF813009DF89200B1
:1025400004F0A4FC9BF800008DF814009BF8010037
:102550008DF815002E208DF81600BDF89400642823
:1025600006D34CF6CD4100FB01F0C00CADF8940051
:10257000C0B204F08BFC9BF800000626F94F8DF8E2
:1025800017009BF801008DF81800B869DFF8E0A388
:102590009FEDF58B36EA00011DD110F0100F1CBF26
:1025A0009AED040B20EE080B15D004F08DFC0DF114
:1025B0002C081BF8090008F8090009F1010000F0D7
:1025C000FF09B9F10A0FF4D3B9699DF8A80036EAFA
:1025D00001020BD102E09DED260BE6E711F0100F92
:1025E00004D04E2818BF532806D00EE04E2818BF3E
:1025F000532801D03ABB05E04E28044614BF5328A7
:102600000446F7E711F0100F1DD09AED060B20EEEF
:10261000080B04F06DFD00200DF13C091BF80010C3
:1026200009F80010401CC0B20B28F7D3B969062086
:102630009DF8C13030EA010203F13000C6B29DF8C6
:10264000C00009D102E09DED2C0BE2E711F0100F64
:102650001CBF572845280CD15728054614BF4528CC
:10266000054612B911F0100F03D142B911F0100F45
:1026700005D0002B1ABF97F89A02002836269DF83D
:10268000C20004F003FC9BF8000014909BF80100CA
:10269000139003209FEDB70A04F04EFE9BF8000054
:1026A00006218DF824009BF801008DF825009BF889
:1026B00002008DF826009BF803008DF82700B8690A
:1026C00081433AD110F0100F37D09AED080B042057
:1026D000B7EEC00B04F030FE012836D02D208DF867
:1026E00000009BF800008DF801009BF801008DF8B8
:1026F00002009BF802008DF803009BF803004D27B1
:102700008DF8040004209AED120BB7EEC00B04F014
:1027100013FE68B39BF800008DF808009BF80100D9
:102720008DF809009BF802008DF80A009BF8030061
:102730008DF80B009BF804002BE09DED340B04207A
:10274000B7EEC00B04F0F8FDC6E79BF800008DF86B
:1027500000009BF801008DF801009BF802008DF845
:1027600002009BF803008DF803009BF80400C6E705
:102770002D208DF808009BF800008DF809009BF8CB
:1027800001008DF80A009BF802008DF80B009BF801
:1027900003008DF80C0003209DED3C0BB7EEC00B41
:1027A00004F0CAFD9BF8000017909BF801001690FA
:1027B0009BF80200159000209BF803A004F018FB82
:1027C0009BF800002A218DF828000DF11C0C9BF8C5
:1027D00001008DF829009BF802008DF82A009BF873
:1027E0000300654A8DF82B0000201CF800301354BC
:1027F000401CC0B20628F8D32C209071002004ABF6
:1028000002EB000E13F800C0401CC0B28EF807C0E7
:102810000928F5D32C231374002002EB000E18F8BE
:1028200000C0401CC0B28EF811C00A28F5D3D37680
:10283000002014775377141819F800C0401CC0B258
:102840000B2884F81EC0F6D382F829300DF1240C31
:1028500082F82A5082F82B3082F82C6082F82D30D2
:10286000149882F82E00139882F82F00002082F826
:10287000303015181CF80040401CC0B285F83140BB
:102880000428F6D30020EC4682F8353015181CF8E1
:102890000040401CC0B285F836400528F6D382F8C7
:1028A0003B30002082F83C700DF1080C82F83D307E
:1028B00015181CF80040401CC0B285F83E400528A1
:1028C000F6D382F8433082F8447082F84530179886
:1028D00082F84600169882F84700159882F848005A
:1028E000002082F849A082F84A300AAB141813F885
:1028F00000C0401CC0B284F84BC00428F6D30020AE
:10290000924682F84F104F2103F07EFE03F09EFEA8
:102910009BF800008AF850009BF80100174C1849FA
:102920008AF851000D208AF852000A208AF85300D4
:10293000542084F820000120087012A0FDF7C8FD83
:1029400094F82000401EC1B20B4809F0E7FF19B00F
:10295000BDEC028BBDE8F00F5DF814FB0000000039
:10296000EE06022038CA0220F8C1631ADCA54C40EA
:102970007006022000000000E30702205000022041
:10298000600602204747415F54585F444154410A62
:102990000000000002480068C0F3004070470000DB
:1029A00014ED00E02DE9F0473C210446D02003F06F
:1029B00036FD60F307053B21D02003F030FD60F3C6
:1029C0000F253E212F46D02003F029FD60F3174547
:1029D0003D21D02003F023FD60F31F654021D0206E
:1029E0004FEA154903F01BFD60F307063F21D02095
:1029F00003F015FD60F30F264421D02003F00FFDF6
:102A000060F307054321D02003F009FD60F30F2593
:102A10004621D02003F003FDA846452160F3174866
:102A2000D02003F0FCFC60F31F684821D0204FEA5F
:102A3000184A03F0F4FCB046472160F30708D020A1
:102A400003F0EDFC01464046257084F801A061F3D7
:102A50000F20A070E77084F804906671BDE8F087DD
:102A60002DE9F04149490122494803F0F7F8494E60
:102A70000027494CF078012813D1042005F08CFB85
:102A8000322006F09BFBE07830B144A0F770FDF7F0
:102A90001FFDFFF757FA04E047A0FDF719FDFFF708
:102AA000DFFF3079012598B9052005F075FB32204C
:102AB00006F084FB207930B144A03571FDF708FDA4
:102AC000FFF740FA04E048A0FDF702FDFFF7C8FF5A
:102AD000707998B9062005F05FFB322006F06EFB96
:102AE000207930B146A07571FDF7F2FCFFF72AFAA4
:102AF00004E04AA0FDF7ECFCFFF7B2FFB07998B90B
:102B0000072005F049FB322006F058FBA07930B1D0
:102B100048A0B571FDF7DCFCFFF714FA04E04CA007
:102B2000FDF7D6FCFFF79CFFF07998B9082005F077
:102B300033FB142006F042FBE07930B14AA0F57176
:102B4000FDF7C6FCFFF7FEF904E04EA0FDF7C0FC60
:102B5000FFF786FF3078012812D105F01DFB142005
:102B600006F02CFB207830B14CA03770FDF7B0FC9C
:102B7000FFF7E8F904E04FA0FDF7AAFCFFF770FFAC
:102B8000BDE8F0414F4800F091B90000C2000220BA
:102B90001C090220040002200C000220475354208C
:102BA0004F50454E20205355434345535346554CB3
:102BB0004C59210D0A000000475354204F50454EF8
:102BC00020204641494C4544210D0A0047535620D8
:102BD000434C4F534520205355434345535346558B
:102BE0004C4C59210D0A000047535620434C4F537B
:102BF0004520204641494C4544210D0A0000000073
:102C000047534120434C4F534520205355434345A0
:102C1000535346554C4C59210D0A0000475341204F
:102C2000434C4F534520204641494C4544210D0A11
:102C30000000000056544720434C4F53452020537A
:102C400055434345535346554C4C59210D0A0000FA
:102C500056544720434C4F534520204641494C454C
:102C600044210D0A00000000474C4C20434C4F53B8
:102C70004520205355434345535346554C4C592109
:102C80000D0A0000474C4C20434C4F534520204632
:102C900041494C4544210D0A0000000035485A20A6
:102CA000205355434345535346554C4C59210D0A27
:102CB0000000000035485A20204641494C45442137
:102CC0000D0A0000EC0A02200C4902204DF804ED28
:102CD00083B000234202CDE900010C4808A10BF0AB
:102CE000A1F900220C2101200AF050FE034948609E
:102CF0000028FDD003B05DF804FB00003C0002207A
:102D00004770735F7461736B00000000112D000841
:102D100084B01F4C1F4D0026039603AA60686946C5
:102D20000BF0D6F80028F8D09DF800000028F4D168
:102D30000299A1600A18401CC0B292F8EF30C8286E
:102D400082F84033F6D300200A18401CC0B292F833
:102D5000B731C82882F80834F6D301F5507003F073
:102D600013FDA06800F5816003F0A2FE287800281A
:102D70001CBF6878002806D02E700021064A01206A
:102D80006E700AF079F91A2104A009F017FFC4E760
:102D90003C0002206006022090010220303A53617C
:102DA0007665446174612F477073496D7544617431
:102DB000612E7478740000004DF804ED85B0002396
:102DC0008DF800000548CDE9011203AA6946406864
:102DD0000BF008F805B05DF804FB00003C00022091
:102DE0002DE9F041866D044600F0DCFB054694F8C1
:102DF00035000027022806D080206065012084F875
:102E00003470BDE8F0812068016821F0160101608E
:102E10002068416921F080014161206C002804BFD5
:102E2000A06C002804D02068016821F0080101602E
:102E30002068016821F0010101602068006810F03D
:102E4000010F12D000F0AEFB401B052808D920204E
:102E5000606584F83470032084F83500BDE8F081A3
:102E60002068006810F0010FECD194F85C003F215D
:102E700001FA00F0B060012084F8347084F8350065
:102E80000020BDE8F08190F83510022903D08021A0
:102E9000416501207047052180F835100068016800
:102EA00021F001010160002070470000002804BFEC
:102EB0000120704790F83510022904BF02207047A6
:102EC00001680A6822F001020A6001684FF0000CF4
:102ED000C1F800C00168C1F804C00168C1F808C0A9
:102EE0000168C1F80CC00168C1F810C02121026856
:102EF000516101680C4BCAB2103A6FF30901A3FB90
:102F000002320A4B1209032A9B5CC36588BF091D64
:102F10003F2281659A408A60C0F854C080F835C06D
:102F200080F834C000207047ABAAAAAA28E900089C
:102F30002DE9F843044673484FF00008CDF80080AF
:102F40004FF41651A56D0068B0FBF1F72E6808210B
:102F500094F85C0001FA00F0304211D02068026859
:102F600012F0040F0CD0026822F00402026094F800
:102F70005C0001FA00F0A860606D40F0010060653F
:102F800094F85C1060488840304209D02168496953
:102F900011F0800F04D0A860606D40F00200606501
:102FA00094F85C1059488840304209D0216809687B
:102FB00011F0020F04D0A860606D40F0040060655D
:102FC00094F85C1010208840304220D021680968B5
:102FD00011F0080F1BD0A8602068016811F4802F41
:102FE00009D0006810F4002F02D0A16C79B10CE078
:102FF000216C51B90BE0016811F4807F03D10168A5
:1030000021F008010160216C09B12046884794F83D
:103010005C102020884030424FF0010649D02168E2
:10302000096811F0100F44D0A86094F83500052805
:103030002068016809D011F4802F2AD0006810F4AC
:10304000002F23D0E16B19B331E021F016010160AC
:103050002068416921F080014161206C002804BF93
:10306000A06C002804D02068016821F008010160EC
:1030700094F85C003F2101FA00F0A86084F83480E5
:1030800084F83560216DC1BBBDE8F883616C71B90E
:103090000FE0016811F4807F07D1016821F0100171
:1030A000016084F8348084F83560E16B09B1204612
:1030B0008847606D002808BFBDE8F883606D10F098
:1030C000010F15D0052084F835002068016821F033
:1030D000010101600098401C0090B84204D82068AB
:1030E000006810F0010FF5D184F8348084F8356061
:1030F000E16C002908BFBDE8F883204601B0BDE8B7
:10310000F043084714000220010080000400800002
:1031100070B5044600F046FA002C054604BF0120B5
:1031200070BD0026022084F8346084F835002068E1
:10313000016821F0010101602068006810F0010FB2
:103140000FD000F02FFA401B052805D9202060651C
:10315000032084F8350070BD2068006810F0010F6E
:10316000EFD1216808683E4A1040D4E901231A4390
:10317000D4E9033C43EA0C031A4363691A43A36985
:103180001A43E3691A43236A1A431043626A042A02
:1031900003D1D4E90B231A4310430860236858690C
:1031A0004FF0010C20F00701606A014304283ED172
:1031B000A06AA269014352B1B2F5005F1CD0002899
:1031C0001CBF012802282CD0032826D02FE020B1D4
:1031D000012807D002280AD029E0E06A10F0807F99
:1031E0001FD124E0E06AB0F1C07F20D119E0E06A8D
:1031F00010F0807F15D11AE098B1012808D002287C
:103200000FD0032804BFE06AB0F1C07F09D00EE000
:10321000E06A10F0807F04D109E0E06A10F0807F5E
:1032200005D04020606584F835C0012070BD59612B
:1032300020680C4AC1B210396FF30900A2FB0121CA
:10324000094A09090329525CE26588BF001D3F2134
:10325000A06591408160666584F835C0002070BD2E
:103260003F8010E0ABAAAAAA28E9000870B490F841
:1032700034C00024856DBCF1010F02BF022070BC78
:1032800070474FF0010C80F834C090F835604FF073
:10329000000C012E1CBF80F834C0022402D020464E
:1032A00070BC7047022680F83560C0F854C0D0F872
:1032B00000C0DCF8006026F48026CCF80060D0F86E
:1032C00000C0CCF804308368402B036803BF9A60C9
:1032D0000268D16099601CBF0168CA6090F85C10F8
:1032E0003F2202FA01F1A96001680A6842F0160261
:1032F0000A6001684A6942F080024A61016C21B1AA
:1033000001680A6842F008020A600068016841F03A
:1033100001010160C3E731B500F044F9044600F053
:1033200041F90099001B8842F9D338BDB0F5005F20
:1033300018BF704701200249087002494871704760
:10334000E20002202800022004490A68024208BF65
:10335000704710B50860FFF7E9FF10BD143C01404D
:103360002DE9F84FDFF81C920022DFF814820F27B6
:1033700009F1040A4FF0010E0B680EFA02F52B401A
:10338000AB4240F0F780D1F804C0BCF1020F18BF87
:10339000BCF1120F12D14FEAD20C00EB8C0CDCF80E
:1033A00020605407E40E07FA04FB26EA0B06D1F866
:1033B00010B00BFA04F43443CCF8204006684FEA0E
:1033C000420C91F804B003240BF0030B04FA0CF444
:1033D000A6430BFA0CFB4BEA060606604E68012E6C
:1033E00018BF022E03D0112E18BF122E11D18668DD
:1033F000D1F80CB0A6430BFA0CFB4BEA060686602C
:10340000466826EA05050E79C6F300169640354350
:103410004560C56825EA04048D6805FA0CFC4CEA91
:10342000040CC0F80CC0D1F804C01CF0805F7CD044
:10343000D8F800C04CF4804CC8F800C0D8F800C0E0
:103440000CF4804CCDF800C022F0030C0CF1804548
:1034500005F59835D5F808C89407240F07FA04F63F
:103460002CEA0606A0F1804CBCF5003C48D0A0F147
:10347000804CBCF5013C08BF4FF0010C40D0A0F1DE
:10348000804CBCF5023C08BF4FF0020C38D0A0F1D4
:10349000804CBCF5033C08BF4FF0030C30D0A0F1CA
:1034A000804CBCF5043C08BF4FF0040C28D0A0F1C0
:1034B000804CBCF5053C08BF4FF0050C20D0A0F1B6
:1034C000804CBCF5063C08BF4FF0060C18D0A0F1AC
:1034D000804CBCF5073C08BF4FF0070C10D0A0F1A2
:1034E000804CBCF5083C08BF4FF0080C08D0A0F198
:1034F000804CBCF5093C0CBF4FF0090C4FF00A0C96
:103500000CFA04FC4CEA060CC5F808C8D9F800C04F
:103510004C682CEA030C14F4803F18BF4CEA030CEF
:10352000C9F800C0DAF800C000E023E04C682CEADB
:10353000030C14F4003F18BF4CEA030CCAF800C097
:10354000114CD4F800C04D682CEA030C15F4801F10
:1035500018BF4CEA030CC4F800C00C4CD4F800C0EF
:103560004D682CEA030C15F4001F18BF4CEA030C3D
:10357000C4F800C0521C102AFFF4FEAEBDE8F88F5C
:1035800044380240003C0140083C01400C3C0140F2
:103590000069084018BF01207047002A08BF0904CD
:1035A000816170470148006870470000D000022028
:1035B00002480168491C016070470000D0000220E9
:1035C000074810B5016841F400710160032000F064
:1035D0005DF80F2000F006F800F018F8002010BD8C
:1035E000003C024010B5044607484FF47A72006868
:1035F000B0FBF2F002F00AF800222146501E00F063
:1036000013F8002010BD00001400022070470122B2
:1036100000F01F0102FA01F14009800000F1E020F2
:10362000C0F8001170470000174B4DF8044D1B689F
:10363000C3F30223C3F1070CBCF1040F88BF4FF0A2
:10364000040C1C1D072C34BF0023DB1E012404FACC
:103650000CFCACF1010C0CEA0101994004FA03F3F3
:103660005B1E1A40114300284FEA0111B8BF00F059
:103670000F0000F1E020B4BF80F8141D80F80014A2
:103680005DF8044B704700000CED00E0074A00F0C5
:10369000070011684FF6FF03194041EA002040F08F
:1036A000FD7040F080601060704700000CED00E09D
:1036B0001C4838B5016841F08051016000681A4C1F
:1036C00000F080500090206840F480302060FFF7C8
:1036D00069FF0546606810F4803F09D1FFF762FF7B
:1036E000401BB0F57A7F14D8606810F4803FF5D0A5
:1036F000206840F400302060FFF754FF0546606802
:1037000010F4003F0BD1FFF74DFF401BB0F57A7F5F
:1037100001D9032038BD606810F4003FF3D00020C9
:1037200038BD000040380240007000400248016887
:1037300041F4807101607047007000402DE9F84F3E
:1037400004460078DFF82C944FF0000B10F0010FC6
:103750005D4610D0D9F8000020F40000C9F8000040
:10376000D9F80000616B0843C9F80000606B0028BD
:1037700008BF4FF0010B2068FF4E10F4002F0FD050
:103780003068E16B20F4401008433060E06BB0F526
:10379000801F08BF4FF0010B02D0002808BF012591
:1037A000206810F4801F0FD03068216C20F4400096
:1037B00008433060206CB0F5800F08BF4FF0010B5C
:1037C00002D0002808BF0125206810F0807F18BFB4
:1037D0004FF0010B10F0200F71D0E848016841F064
:1037E000805101600068DFF8988300F080500090FD
:1037F000D8F8000040F48070C8F80000FFF7D2FE4F
:103800000746D8F8000010F4807F0AD1FFF7CAFEFF
:10381000C01B642800F23083D8F8000010F4807FC9
:10382000F4D0DFF86083D8F8000010F4407031D095
:10383000218E01F4407181422CD0D8F80000D8F8D4
:10384000001020F4407041F48031C8F80010D8F81E
:10385000001021F48031C8F80010C8F80000D8F832
:10386000000010F0010F15D0FFF79CFE0746D8F8B6
:10387000000010F0020F08BF41F2883A0AD1FFF7AA
:1038800091FEC01B504500F2F782D8F8000010F0FE
:10389000020FF4D0206B4FF4407181431CBFD9F864
:1038A000000020F4F81000F0EE80C9F80000D8F80D
:1038B0000000218EC1F30B010843C8F800002078F6
:1038C00010F0100F07D0306820F080703060306842
:1038D000A16B08433060208810F4804FAA4805D0BF
:1038E0000168626E21F4403111430160218811F4B6
:1038F000004F05D00168A26E21F440211143016000
:10390000216811F4803F05D00168E26E21F4401176
:1039100011430160216811F4003F05D00168226F56
:1039200021F4400111430160217811F0400F05D0CE
:103930000168626C21F0030111430160217811F0EC
:10394000800F05D00168A26C21F00C0111430160C9
:10395000218811F4807F05D00168E26C21F03001EC
:1039600011430160218811F4007F05D00168226DA8
:1039700021F0C00111430160218811F4806F05D04E
:103980000168626D21F4407111430160218811F4D6
:10399000006F05D00168A26D21F440611143016000
:1039A000218811F4805F05D00168E26D21F4405157
:1039B00011430160218811F4005F05D00168226E77
:1039C00021F4404111430160216811F4800F05D0BA
:1039D0000168A26F21F0806111430160216811F438
:1039E000001F0AD00168E26F21F0006111430160FD
:1039F000E16FB1F1006F08BF0125216811F0080FD8
:103A000018BF012511F4802F05D00168626F21F0E5
:103A1000407111430160216811F4000F06D0016864
:103A2000D4F8802021F0805111430160216811F009
:103A3000806F06D00168D4F8842021F00051114332
:103A40000160206810F0006F06D03068D4F888104C
:103A500020F0007008433060206810F0805F06D0CE
:103A60003068D4F88C1020F0806008433060BBF1DF
:103A7000000F47F6C07A4FF440374FF070684FF0B0
:103A8000E0490ED109E0D9F8001020F4407020F090
:103A9000704021F4F811084307E72068B0F1007F77
:103AA00067D13A48006820F0806138480160FFF72C
:103AB00079FD83463548006810F0006F0BD0FFF7A2
:103AC00071FDA0EB0B00642800F2D6812F4800683E
:103AD00010F0006FF3D1207810F0010F2C482DD09A
:103AE000616B59BB016897FAA7F201F44031B2FA51
:103AF00082F2D140026898FAA8F39AFAAAFC02F07E
:103B00007062B3FA83F3BCFA8CFCDA40636803FAA0
:103B10000CF397FAA7FCBCFA8CFC01FA0CF11943E0
:103B200098FAA8F3B3FA83F39A4099FAA9F30A43EF
:103B3000A168B3FA83F3994011430160216811F43D
:103B4000002F03D0E26BB2F5801F06D011F4801F66
:103B500049D0216CB1F5800F45D1016897FAA7F2E1
:103B600001F44031B2FA82F2D140026802F0E04240
:103B700010E0A5E0083802408C380240403802408E
:103B80000070004070380240903802400038024017
:103B90008438024099FAA9F39AFAAAFCB3FA83F39B
:103BA000BCFA8CFCDA40636803FA0CF397FAA7FCC2
:103BB000BCFA8CFC01FA0CF198FAA8FC1943E368F2
:103BC000BCFA8CFC03FA0CF3194399FAA9F3B3FA83
:103BD00083F39A40114301603168626A21F01F014A
:103BE000521E11433160216811F0807F2ED0016890
:103BF00098FAA8F201F07061B2FA82F2D14002683C
:103C000099FAA9F39AFAAAFC02F0E042B3FA83F314
:103C1000BCFA8CFCDA40636897FAA7FBBBFA8BFB13
:103C200003FA0CF3D4F810C00CFA0BFC43EA0C03B3
:103C300098FAA8FCBCFA8CFC01FA0CF1194399FA29
:103C4000A9F3B3FA83F39A4011430160216811F09C
:103C5000007F1CD09AFAAAF2616897FAA7F3B2FA29
:103C600082F2B3FA83F301FA02F22169994098FAD9
:103C7000A8F31143E268B3FA83F39A4099FAA9F3DF
:103C80001143A268B3FA83F39A40114301607F485D
:103C9000006840F080617D480160FFF783FC834647
:103CA0007A48006810F0006F0AD1FFF77BFCA0EBA8
:103CB0000B0064287DD87548006810F0006FF4D0C0
:103CC000002D77D0714D286820F080502860FFF7D4
:103CD00069FC8346286810F0005F09D0FFF762FC9A
:103CE000A0EB0B00642864D8286810F0005FF5D1C1
:103CF0002068DFF89CC110F4002F01D0E16B21B1E6
:103D000010F4801F38D0206CB0BBDCF8000097FAAC
:103D1000A7F100F44030B1FA81F1C840DCF800109E
:103D200099FAA9F29AFAAAF301F0E041B2FA82F202
:103D3000B3FA83F3D14062699A4097FAA7F3B3FAD2
:103D400083F3984098FAA8F31043A269B3FA83F377
:103D50009A40104399FAA9F2B2FA82F291400843CC
:103D6000CCF8000030686FF0FF02A16A20F4F85030
:103D700002EB012108433060206810F4001F34D0AA
:103D8000E06FB0F1006F30D1DCF8000098FAA8F1D4
:103D900000F07060B1FA81F1C840DCF8001099FAC7
:103DA000A9F29AFAAAF301F0E041B2FA82F2D14004
:103DB00001E061E067E06269B3FA83F397FAA7FB79
:103DC0009A40236ABBFA8BFB03FA0BF31A4398FA67
:103DD000A8F3B3FA83F39840104399FAA9F2B2FA20
:103DE00082F291400843CCF80000207810F0080FD0
:103DF00032D0DCF8000098FAA8F100F07060B1FA57
:103E000081F1C840DCF8001097FAA7F29AFAAAF3F9
:103E100001F44031B2FA82F2B3FA83F3D14062691D
:103E20009A4097FAA7F3B3FA83F39940114398FAAB
:103E3000A8F2B2FA82F2904099FAA9F20843E16935
:103E4000B2FA82F291400843CCF800003068E16A8F
:103E500020F4403008433060286840F080502860EB
:103E6000FFF7A0FB0446286810F0005F0BD1FFF7B6
:103E700099FB001B642802D90320BDE8F88F28684D
:103E800010F0005FF3D00020BDE8F88F003802404A
:103E9000883802402DE9F047DFF8688104460D4676
:103EA000D8F8000000F00F00A8420CD2D8F80000AB
:103EB00020F00F002843C8F80000D8F8000000F0F8
:103EC0000F00A84270D120784F4F10F0020F05D09C
:103ED0003868A16820F0F00008433860207810F0BE
:103EE000010F4ED060684949012820D00968022896
:103EF00022D011F0020F57D0396821F00301084396
:103F00003860FFF74FFB0646606841F288390128A8
:103F100016D00228386800F00C0021D0F8B1FFF765
:103F200041FB801B484528D90320BDE8F08709687C
:103F300011F4003FE0D137E011F0007FDCD133E035
:103F4000386800F00C0004281BD0FFF72BFB801B07
:103F50004845E9D8386800F00C000428F5D110E095
:103F600008280ED0FFF71EFB801B4845DCD83868B8
:103F700000F00C000828F5D103E0386810F00C0FB1
:103F8000CDD1D8F8000000F00F00A8420FD9D8F822
:103F9000000020F00F002843C8F80000D8F8000007
:103FA00000F00F00A84202D00120BDE8F087207881
:103FB00010F0040F05D03868E16820F4E0500843A1
:103FC0003860207810F0080F06D03868216920F496
:103FD000604040EAC100386000F04EF83968F022D5
:103FE00092FAA2F201F0F001B2FA82F2D140084A4C
:103FF000515CC840074908600F20FFF7F3FA002022
:10400000BDE8F087003C024008380240003802401A
:1040100010E90008140002200848094900680968EE
:104020004FF4E05292FAA2F201F4E051B2FA82F2B5
:10403000D140044A515CC84070470000140002207F
:104040000838024020E90008084809490068096862
:104050004FF4604292FAA2F201F46041B2FA82F2A5
:10406000D140044A515CC84070470000140002204F
:104070000838024020E900082148006810F00C01CF
:10408000204808BF7047DFF880C0042904BF60469D
:104090007047082918BF70474DF8044D1B4A116836
:1040A000136801F03F0113F4800F47F6C0730BD083
:1040B000BCFBF1F01168194093FAA3F3B3FA83F350
:1040C000D94000FB01F00AE0B0FBF1F011681940A3
:1040D00093FAA3F3B3FA83F3D94000FB01F011681C
:1040E0004FF440325DF8044B92FAA2F201F44031F1
:1040F000B2FA82F2D140491C4900B0FBF1F070479E
:10410000083802400024F40040787D010438024061
:104110002DE9F84FDFF8A88304460078A8F10407DA
:1041200010F0010FA7F104055AD0D8F8000000F0F4
:104130000C00042809D0D8F8000000F00C00082872
:104140000CD1386810F4800F08D0286810F4003FB4
:1041500046D06068002800F0AF8141E06068B0F5AB
:10416000803F04BF286840F480300AD010B1B0F519
:10417000A02F11D0286820F480302860286820F40F
:10418000802028606068D0B1FFF70CFA06462868E6
:1041900010F4003F08D023E0286840F48020286015
:1041A000286840F48030ECE7FFF7FCF9801B6428B6
:1041B00000F22581286810F4003FF5D010E0FFF7E9
:1041C000F1F90646286810F4003F09D0FFF7EAF934
:1041D000801B642800F21381286810F4003FF5D199
:1041E000207810F0020F50D0D8F800004FF0F809F6
:1041F00010F00C0F18D0D8F8000000F00C000828C0
:1042000004BF386810F4800F0ED0E06800282868DA
:1042100028D040F001002860FFF7C4F9064628685E
:1042200010F0020F09D011E0286810F0020F1CBF37
:10423000E06801280AD000F03FB9FFF7B3F9801B0E
:1042400002287DD8286810F0020FF6D0286899FA65
:10425000A9F22169B2FA82F220F0F80091400843F5
:10426000286012E020F001002860FFF79BF9064665
:10427000286810F0020F08D0FFF794F9801B02287D
:104280005ED8286810F0020FF6D1207810F0080FE1
:1042900033D0DFF8309260690028D9F8000016D0DA
:1042A00040F00100C9F80000FFF77CF90646D9F894
:1042B000000010F0020F20D1FFF774F9801B0228D4
:1042C0003ED8D9F8000010F0020FF5D015E020F02C
:1042D0000100C9F80000FFF765F90646D9F80000AB
:1042E00010F0020F09D0FFF75DF9801B022827D8D4
:1042F000D9F8000010F0020FF5D1207810F0040F6B
:1043000063D07148016841F08051016000686F4ED0
:1043100000F080500090306840F480703060FFF70B
:1043200041F98146306810F4807F0BD1FFF73AF9EC
:10433000A0EB0900642862D8306810F4807F00E0A8
:104340005DE0F3D0A068624E012804BF306840F001
:10435000010009D008B1052813D0306820F0010011
:104360003060306820F004003060A06841F2883A84
:10437000D0B1FFF717F98146306810F0020F08D06E
:1043800023E0306840F004003060306840F0010005
:10439000EAE7FFF707F9A0EB090050452FD830688E
:1043A00010F0020FF5D010E0FFF7FCF881463068FE
:1043B00010F0020F09D0FFF7F5F8A0EB0900504507
:1043C0001DD8306810F0020FF5D1A069E8B3D8F815
:1043D000001001F00C0108296ED00228286820F096
:1043E000807028600ED0FFF7DDF80446286810F0D2
:1043F000007F5ED0FFF7D6F8001B022855D90320B6
:10440000BDE8F88FFFF7CEF80646286810F0007F69
:1044100008D0FFF7C7F8801B0228F0D8286810F0F2
:10442000007FF6D1D4E9070147F6C0724FF0FF33A1
:1044300092FAA2F20843616AB2FA82F29140A26A49
:1044400003EB52024FF4403300E032E093FAA3F35F
:10445000B3FA83F39A4011434FF070620843E16A64
:1044600092FAA2F2B2FA82F291404FF0E04208438F
:10447000216B92FAA2F2B2FA82F2914008433860BC
:10448000286840F080702860FFF78CF804462868A0
:1044900010F0007F0DD1FFF785F8001B0228AED881
:1044A000286810F0007FF6D003E0286810F0007F45
:1044B000A0D10020BDE8F88F0120BDE8F88F0000F2
:1044C0000838024074380240403802400070004012
:1044D000703802404DF8044D0068406820F0C0007C
:1044E00020F07F4000F03F044FEA104C81F803C0F9
:1044F000C0F304234B708C70C0F342300870C2B913
:104500004FEA1C100CF00F0200EB800002EB4000A1
:10451000C870180903F00F0200EB800002EB4000A6
:104520004870200904F00F0200EB800002EB40000D
:1045300088705DF8044B00207047000030B40368B9
:104540009B6A4B6003681B69C3F30E038B600068B2
:104550000068164B18404025C0F305430B70C0F3AC
:1045600006244C7000F07F0C81F802C005EA104070
:104570000873C2B9180903F00F0200EB800002EBC8
:1045800040000870200904F00F0200EB800002EBED
:10459000400048704FEA1C100CF00F0200EB800046
:1045A00002EB4000887030BC002070477F7F7F00A6
:1045B000002804BF0120704710B50446407F20B991
:1045C00000202077204600F043F802206077216821
:1045D000CA204862532021684862204603F0A5F9AA
:1045E000FF210028206804D0416204206077012068
:1045F00010BD826822F0400222F4E002826020684E
:10460000826863681A43D4E9043C43EA0C031A4302
:1046100082602268E068106120680269238942EAAA
:10462000034202612068C26822F08002C2602068F2
:10463000C26C22F00802C2642068C26CA3691A43EB
:10464000C2642068416201206077002010BD000034
:1046500012484DF804EDB3B0016841F0805101609B
:10466000006800F080503190FFF760F8042024903B
:1046700000202A900120269024A8FFF749FD202041
:104680000090C0000C906846FFF758F80448016895
:1046900041F40041016033B05DF804FB4038024052
:1046A000703802402DE9F0470446007F0B46012890
:1046B00004BF0220BDE8F08701260220267760773C
:1046C000D2B1DA789878597840EA02401A7809022B
:1046D00041EA423140EA01052168CA20486253207C
:1046E00021684862204603F020F900274FF0FF08B8
:1046F0004FF0040958BB18E0587810F0100F03D0A1
:1047000000F0EF000A305870D87803F002F9020484
:10471000587803F0FEF842EA0022987803F0F9F89E
:104720001978104340EA4135D6E7216825F0C000EA
:1047300048602068C16821F08001C16020688068FD
:1047400010F0200F0CD1204600F08AF840B120680C
:10475000C0F8248084F81D9001202777BDE8F087F9
:104760002068C0F82480667700202777BDE8F087AE
:104770002DE9F0470446007F0D46012804BF0220C2
:10478000BDE8F0874FF00109022084F81C906077A3
:1047900000272068806800F0400072B1002808BF40
:1047A0002F73A87829782A7B40EA014069780902AA
:1047B00041EA024140EA010612E0002808BF2F73D7
:1047C000287803F0A6F80204687803F0A2F842EA19
:1047D0000022A87803F09DF8297B104340EA0146A7
:1047E0002168CA204862532021684862204603F0AD
:1047F0009CF84FF0FF084FF0040AE8B92168174809
:10480000304008602068816821F480218160D5E90A
:104810000401014320688268114381602068C168F7
:1048200021F08001C1602068806810F0200F0CD159
:10483000204600F015F840B12068C0F8248084F8C4
:104840001DA001202777BDE8F0872068C0F82480EC
:1048500084F81D9000202777BDE8F0877F7F7F00D8
:1048600070B504460068C16821F0A001C160FEF780
:1048700099FE05462068C06810F0200F0CD1FEF7A5
:1048800091FE401BB0F57A7F01D9032070BD2068EE
:10489000C06810F0200FF2D0002070BD70B5044643
:1048A00008460026D4F850C0A36CE26CD2B205E0F2
:1048B000D4F850C0A36CE26C401ED2B20CEA0303E1
:1048C0001A4301D10028F3D120680D46416B11F441
:1048D000005F1CBF002D6D1EF8D1606D012803D153
:1048E000204600F04FFD064655EA060008BF0426A4
:1048F00040F2FF5021688863E06C00281ABFE06C2A
:10490000C0B2304670BD2DE9F04704460846002687
:1049100086B0D4F850C0A36CE26CD2B205E0D4F8F3
:1049200050C0A36CE26C401ED2B20CEA03031A43DF
:1049300001D10028F3D120680D46416B11F4805F4E
:104940001CBF002D6D1EF8D1606D032803D12046D9
:1049500000F018FD064655EA060008BF042640F29E
:10496000FF5021688863E06C00281FBFE06CC0B274
:1049700006B0BDE8F08700254FF040080D274FF046
:10498000FF0A4FF480690595A08C6946CDE9028540
:10499000CDF810900004CDE90007206803F067F916
:1049A0000D21204603F074F9002818BF504606D1A7
:1049B0002068002103F037F90590C0F34320042854
:1049C000E1D106B03046BDE8F087704770477047C8
:1049D00070472DE9F00790F820204FF0000C81F887
:1049E0005620828CA1F85420826A120E93090B7013
:1049F000C2F383034B7002F003028A70826A120CC6
:104A0000CA70028D120A0A7190F828204A714FF676
:104A1000FF75C26A120E05EA0212CA80C26ACB880A
:104A2000C2F3074243EA1213CB8002F00F020A726C
:104A3000828DC2F30722D3094B72C2F380138B72AB
:104A4000C2F34013CB72C2F300130B7300264E73F4
:104A5000036A0124002B18BF012B00F0B780022B42
:104A600018BF4FF0290C00F0F380C2F380134B768F
:104A70009206520E8A7690F830208B7E43EAD2134B
:104A80008B7602F07F02CA76426B120ED3090B7747
:104A9000C2F341134B77C2F382038B779207120F55
:104AA000CA77426BCB7FC2F3074243EA9213CB77BC
:104AB000C2F3401381F8203081F8216002F0010236
:104AC00081F82220828EC2F30722D30981F8233095
:104AD000C2F3801381F82430C2F3401381F82530EB
:104AE000C2F3001381F82630C2F3810381F8273026
:104AF00002F0030281F8282090F83420520881F84F
:104B0000292081F82A40826B120E81F82C20826BBA
:104B1000120C05EA0222CA85028FCB8DC2F307224E
:104B20001A43CA8590F8382012060A63C26B0B6BD1
:104B3000120E43EA02420A63C26B0B6BC2F30742D6
:104B400043EA02220A63828F0B6BC2F307221A43E5
:104B50000A6390F83C2081F83420026C120E81F830
:104B60003520026C120C12068A63B0F840208B6B61
:104B7000C2F3072243EA02428A6390F840208B6B1B
:104B800043EA02228A63426C8B6B43EA12628A63B5
:104B9000426C91F83C30C2F3074243EA121381F8A9
:104BA0003C301207120DCA87B0F84420CB8FC2F3F5
:104BB00007221A43CA8790F84400400881F8400051
:104BC00081F841406046BDE8F00770479207120D3A
:104BD0000A6190F82C200B6943EA82020A61026B99
:104BE0000B69120E43EA92130B61C2F3C2030B75F9
:104BF00002F007024A75026BC2F3074253098B7534
:104C0000C2F38203CB759207520F0A76028E0B7E97
:104C1000C2F3072243EAD2130B760B690F7EBF1C47
:104C200004FA07F85B1C4FEAE879A3FB087A06FB55
:104C300008A803FB09880B7A04FA03F30B65A7FBAA
:104C4000039A08FB03A307FB0633C1E912930CE7A1
:104C500090F82C209206920A0A61026B0B69120EE0
:104C600043EA02220A61026B0B69C2F307421A434C
:104C70000A61028E0B69C2F307225B1C46F1000732
:104C8000FF0447EA5337DB04C1E912374FF40073DE
:104C90000B65EAE610B501680446486B10F4807FA6
:104CA0000AD04FF4807088630120A0640020E06483
:104CB000204600F09DFC2DE0486B10F0020F06D05E
:104CC00002208863E064204600F093FC22E0486BF9
:104CD00010F0080F07D0082088630420E064204605
:104CE00000F087FC16E0486B10F0200F07D0202062
:104CF00088630620E064204600F07BFC0AE0486BF5
:104D000010F0100F06D0102088630520E0642046C4
:104D100000F06FFC2068C16B21F49D7121F44041CB
:104D2000C16310BD2DE9F34F87B0044600268DF80E
:104D30001860067700F000FA762000963346324677
:104D40003146CDE90160206802F074FF8DF81460EF
:104D5000B046206845464746C146416821F4807107
:104D60004160206802F07CFF0120FEF7D4FA206841
:104D7000416841F48071416000966946019602964F
:104D800003964FF480660496206802F070FF226854
:104D90000023B001516B40F2FF5AC1F3C01104E08F
:104DA000516B401EC1F3C0110FD00029F8D000286C
:104DB00018BFC2F838A008D08DF814309DF8140040
:104DC0004FF0040B002851D101E00323F4E74FF426
:104DD000D57000900820019040200290206869461C
:104DE00002F045FF216829234FF480304A6B12F00E
:104DF000450218BF01224AB906E04A6B12F045028B
:104E000018BF0122401EF6E70028F6D14A6BC2F314
:104E1000800200B11AB10323C1F838B006E0486B34
:104E200010F0400F02D00023402088638DF814302A
:104E30009DF8140018B9012020624FF0804969469E
:104E40000020009037200190206802F010FF3721E9
:104E5000204602F01DFF8DF814009DF81400002874
:104E600004BF49F4801949F000493DD051E0372092
:104E70004FF040080027CDF808806946CDE9007062
:104E8000CDE90376206802F0F2FE3721204602F0D9
:104E9000FFFE8DF814009DF81400A0BB2920CDF86A
:104EA0000090CDE90108CDE903762068694602F05B
:104EB000DEFE20680022416B11F0450FFBD0416BF4
:104EC00011F0040F0EBFC0F838A00322C0F838B0AC
:104ED0008DF814209DF81400A8B92068002102F074
:104EE000A2FEC70F80466D1C1FB94FF6FF708542AA
:104EF000BDD34FF6FF70854206D31B208DF81400FA
:104F00009DF8140007E004E018F0804F1CBF022158
:104F100021629DF814008DF818009DF818000028F3
:104F200040F0D6800127ADF814702068002502F00B
:104F300076FE002816BF206A252504287ED002218F
:104F400004960020CDE90001C021CDE902102068BF
:104F5000694602F08CFE20680025416B11F0450F78
:104F6000FBD0416B11F0040F1CBF0325C0F838B013
:104F700002D0002D62D108E0416B11F0010F1ABF81
:104F80003D468763C0F838A0F3E72068002102F0AF
:104F90004AFEA0630421206802F045FEE063082178
:104FA000206802F040FE20640C21206802F03BFEE5
:104FB0006064206A002818BF012803D0062818BFA3
:104FC000022843D1032001904020029020686946C6
:104FD00002F04DFE206800250DF114084FF0030982
:104FE000416B11F0450FFBD0416B11F0040F1CBF5A
:104FF0000325C0F838B028D1416B11F0010F1CBF58
:105000003D46876321D102F007FE484515D120684F
:10501000C0F838A00021206802F005FE10F4604FAF
:1050200004BF000CA8F800000FD010F4005F18BFF8
:1050300013250AD110F4804F03D000E043E010257F
:1050400003E010F4004F18BF0F25E5BB206A0428C9
:1050500039D0BDF814006946606200040090092050
:105060000190C0200290206802F001FE2068002517
:10507000416B11F0450FFBD0416B11F0040F1CBFC9
:105080000325C0F838B001D0EDB908E0416B11F04C
:10509000010F1ABF3D468763C0F838A0F4E72068C7
:1050A000002102F0C0FDA0620421206802F0BBFDD7
:1050B000E0620821206802F0B6FD20630C21206820
:1050C00002F0B1FD60638DF818509DF8180020B112
:1050D0009DF8180009B0BDE8F08F08992046FFF749
:1050E00078FC8DF818009DF81800A8B908980021E0
:1050F000B0F854000496000400900720019040206E
:10510000CDE902012068694602F0B1FD0721204681
:1051100002F0BEFD8DF81800D4E90401A2690292E4
:10512000CDE9000194E80F0002F084FD9DF818001D
:1051300009B0BDE8F08F00002DE9F04F0446494862
:1051400087B0016841F400610160006800F400600C
:1051500005904548016841F480010160016801F44F
:1051600080010591016841F004010160016801F0CE
:1051700004010591016841F0080101600068032500
:10518000694600F0080005904FF4F85000900220A6
:1051900001900120CDE902050C2004903348FEF770
:1051A000DFF83348042669460096FEF7D9F8002256
:1051B00002213120FEF738FA3120FEF728FA2E4876
:1051C00000272C494FF000684FF4805A4FF4804B71
:1051D00001602021C0E90187C0F814A04FF4806964
:1051E000C0E906B12904C0E908167105C0E90A51F1
:1051F00089100163C0E90379A0658463FDF756FE59
:105200001D48FDF785FF1E481C49C0E900184021D4
:10521000C0E902172021C0E906B12904C0E9081637
:105220007105C0E90A5189100163C0E9049AE0657B
:105230008463FDF73BFE1248FDF76AFF002203215D
:105240003B20FEF7F1F93B20FEF7E1F900220321B4
:105250004520FEF7E9F94520FEF7D9F907B0BDE88A
:10526000F08F00004438024030380240000802400D
:10527000000C024058640240880C0220A0640240E6
:10528000280C02202DE9F0478CB004460068174630
:105290009A464FF00008DDE91465C0F82C80C4F888
:1052A0004880C4F85080C4F84C80012D4FF00109AB
:1052B0008CBFC4F85490C4F854802068C26B42F488
:1052C0009572C2632068C26A42F00802C262A26D8F
:1052D0002A48D063A26D2A48D0640A4606FB05F02E
:1052E0008308206800F1800CA06D6146FDF7BEFFC9
:1052F000206A022803D10602790A41EACA576946A0
:105300001020CDE900604020CDE9020800010490A2
:10531000206802F0ACFC1021204602F0B9FC002805
:105320001CBF0CB0BDE8F0874FF0FF3006A9069017
:1053300006FB05F00790902008900220CDF82C90F5
:10534000CDE90908206802F055FC012D8CBF122020
:105350001120009701906946206802F088FC012D19
:1053600004D91221204602F093FC03E011212046CB
:1053700002F08EFCE0640CB0BDE8F087A97D000867
:10538000C37D000810B50C21044686B00020CDE98D
:1053900000014021CDE9021008010490206869460F
:1053A00002F065FC0C21204602F072FC06B010BD34
:1053B0002DE9F0470446006A00260D46032888B010
:1053C00002BF272008B0BDE8F08700281CBF0128D5
:1053D00002287CD1B5F5805F08BF272677D0372714
:1053E0004FF0400800264FF0060AB5F5006F4FF465
:1053F000806904D0002D18BF262634D071E00696AF
:1054000000210796206802F00EFC10F0007F01D00A
:105410000E2055E006A9204602F0ECFC00284FD1F2
:10542000079810F4802F1CD0A08C6946CDE9028625
:10543000CDF810900004CDE90007206802F017FCB9
:105440003721204602F024FCD0BB02206946CDE97A
:10545000000A206802F00BFC0621204602F018FC2E
:105460002EE025202CE0069600210796206802F009
:10547000DAFB10F0007FCBD106A9204602F0BAFC7F
:10548000F0B9079810F4803FEBD0A08C6946CDE9C5
:105490000286CDF810900004CDE90007206802F0E4
:1054A000E6FB3721204602F0F3FB48B9CDE9006A5C
:1054B0002068694602F0DBFB0621204602F0E8FB8B
:1054C00006000ED1D4E90501D4E9022300E008E08A
:1054D000D4F804C00095CDE901012068614602F0CE
:1054E000A9FB08B03046BDE8F08700002DE9F04385
:1054F0008DB004460068174699464FF00008DDE974
:105500001465C0F82C80C4F84880C4F85080C4F8F2
:105510004C80012D8CBF0320022060652068C26B87
:1055200042F48D72C263E26D2F48D063E26D2F4862
:10553000D06406FB05F08308206800F18002E06D6E
:10554000FDF794FE2068C16A41F00801C162206A3B
:10555000022803D10602790A41EAC9576946102098
:10556000CDE900604020CDE90208000104902068E8
:1055700002F07DFB1021204602F08AFB00281CBFB0
:105580000DB0BDE8F083012D94BF182019200097BD
:1055900001906946206802F06AFB012D04D91921A7
:1055A000204602F075FB03E01821204602F070FB54
:1055B00000281CBF0DB0BDE8F0834FF0FF3006A9F6
:1055C000069006FB05F007909020CDE90808012021
:1055D000CDE90A80206802F00DFBC4F84C800DB0C4
:1055E0004046BDE8F0830000CF7D0008E97D00085B
:1055F000704770474FF0E021042808690CBF40F065
:10560000040020F00400086170470000401EB0F163
:10561000807F24BF012070474FF0E0214861F020D7
:10562000044A82F8140D00208861072008610020D8
:10563000704700000FE000E070477047002804BF8B
:105640000120704710B5044690F83900002804BFC7
:10565000204600F00DF8022084F839002068211D52
:1056600002F0C2FF012084F83900002010BD0000C4
:1056700038B504460068164DA0F18041B1F580614F
:105680000FD1286840F00200286028680022052118
:1056900000F0020000901D20FDF7C6FF1D20FDF761
:1056A000B6FF2068B0F1804F18BF38BD286840F0C1
:1056B0000100286028680022062100F00100009007
:1056C0001C20FDF7B1FFBDE838401C20FDF79FBF4F
:1056D000403802400168CA6842F00102CA600068AE
:1056E000016841F00101016000207047704770B50A
:1056F0000446006801694FF0000511F0020F1CBF5D
:10570000C16811F0020F13D06FF002010161012096
:1057100020762068806910F0030F204602D0FFF742
:10572000E5FF04E000F0A6F8204600F0A4F8257696
:105730002068016911F0040F1CBFC16811F0040F4B
:1057400013D06FF004010161022020762068806987
:1057500010F4407F204602D0FFF7C8FF04E000F0BD
:1057600089F8204600F087F825762068016911F055
:10577000080F1CBFC16811F0080F13D06FF00801AB
:105780000161042020762068C06910F0030F2046D4
:1057900002D0FFF7ABFF04E000F06CF8204600F009
:1057A0006AF825762068016911F0100F1CBFC168E6
:1057B00011F0100F13D06FF0100101610820207656
:1057C0002068C06910F4407F204602D0FFF78EFFAA
:1057D00004E000F04FF8204600F04DF825762068F0
:1057E000016911F0010F1CBFC16811F0010F05D054
:1057F0006FF001010161204600F03EF82068016968
:105800006FF0800511F0800F1CBFC16811F0800F90
:1058100003D005612046FFF70FFF2068016911F4EE
:10582000807F1CBFC16811F0800F03D00561204646
:10583000FFF702FF2068016911F0400F1CBFC1682B
:1058400011F0400F05D06FF040010161204600F0DB
:1058500033F82068016911F0200F1ABFC16811F0F8
:10586000200F70BD6FF0200101612046BDE870403F
:10587000FFF7E3BE7047704710B5044608488442FE
:1058800004D100221146104607F02EFB0548844241
:1058900018BF10BD04A0BDE81040FAF719BE000003
:1058A000380A0220FC0902204865726520697320CD
:1058B0003173200D0A000000704770B5044690F85F
:1058C00069002025212814D12068816811F0800FFB
:1058D0000FD0816821F080018160206E002818BF00
:1058E000FDF77EFA2068016821F0C001016084F8AC
:1058F000695094F86A00222819D12068816811F053
:10590000400F14D0816821F040018160606E002852
:1059100018BFFDF765FA2068016821F490710160F5
:105920002068816821F00101816084F86A500020BC
:1059300070BD704770B501680446C8690A688B6815
:1059400010F00F0F4FF0200551D040F2011C13EA68
:105950000C0F7DD010F0010F18BF12F4807F07D01C
:105960004FF0010CC1F820C0E16E41F00101E16689
:1059700010F0020F18BF13F0010F08D0D4F800C0C8
:105980000221CCF82010E16E41F00401E16610F034
:10599000040F18BF13F0010F08D0D4F800C0042181
:1059A000CCF82010E16E41F00201E16610F0080F22
:1059B0000CD002F0200103F00103194306D0236844
:1059C00008211962E16E41F00801E166E16E0029EB
:1059D00008BF70BD10F0200F1EBF12F0200F204630
:1059E00002F05BFFE06E10F0080F10D10AE010F03B
:1059F000200F18BF12F0200F39D02046BDE87040AC
:105A000002F04BBF2068806810F0400F29D020685A
:105A1000016821F4907101602068816821F0010122
:105A2000816084F86A502068816811F0400F14D0BA
:105A3000816821F040018160606E70B12D4901657F
:105A4000606EFDF720FA002808BF70BD606E00E0B0
:105A50000DE0016DBDE8704008472046FFF769FF83
:105A600070BD2046FFF765FF0020E06670BD10F0B6
:105A7000800F18BF12F0800F2CD094F869002128F5
:105A800018BF70BDB4F8520090B1A068B0F5805F47
:105A900004BF20690028E06C14D0411CE164216837
:105AA00000788862B4F85200401EA4F8520070BD1D
:105AB000086820F0800008602068016841F040011B
:105AC000016070BD0088C0F308008862E06C801C33
:105AD000E064E7E710F0400F14BF12F0400F70BD14
